{
  "contractName": "ERC1363Payable",
  "abi": [
    {
      "constant": true,
      "inputs": [
        {
          "name": "interfaceId",
          "type": "bytes4"
        }
      ],
      "name": "supportsInterface",
      "outputs": [
        {
          "name": "",
          "type": "bool"
        }
      ],
      "payable": false,
      "stateMutability": "view",
      "type": "function"
    },
    {
      "inputs": [
        {
          "name": "acceptedToken",
          "type": "address"
        }
      ],
      "payable": false,
      "stateMutability": "nonpayable",
      "type": "constructor"
    },
    {
      "anonymous": false,
      "inputs": [
        {
          "indexed": true,
          "name": "operator",
          "type": "address"
        },
        {
          "indexed": true,
          "name": "from",
          "type": "address"
        },
        {
          "indexed": false,
          "name": "value",
          "type": "uint256"
        },
        {
          "indexed": false,
          "name": "data",
          "type": "bytes"
        }
      ],
      "name": "TokensReceived",
      "type": "event"
    },
    {
      "anonymous": false,
      "inputs": [
        {
          "indexed": true,
          "name": "owner",
          "type": "address"
        },
        {
          "indexed": false,
          "name": "value",
          "type": "uint256"
        },
        {
          "indexed": false,
          "name": "data",
          "type": "bytes"
        }
      ],
      "name": "TokensApproved",
      "type": "event"
    },
    {
      "constant": false,
      "inputs": [
        {
          "name": "operator",
          "type": "address"
        },
        {
          "name": "from",
          "type": "address"
        },
        {
          "name": "value",
          "type": "uint256"
        },
        {
          "name": "data",
          "type": "bytes"
        }
      ],
      "name": "onTransferReceived",
      "outputs": [
        {
          "name": "",
          "type": "bytes4"
        }
      ],
      "payable": false,
      "stateMutability": "nonpayable",
      "type": "function"
    },
    {
      "constant": false,
      "inputs": [
        {
          "name": "owner",
          "type": "address"
        },
        {
          "name": "value",
          "type": "uint256"
        },
        {
          "name": "data",
          "type": "bytes"
        }
      ],
      "name": "onApprovalReceived",
      "outputs": [
        {
          "name": "",
          "type": "bytes4"
        }
      ],
      "payable": false,
      "stateMutability": "nonpayable",
      "type": "function"
    },
    {
      "constant": true,
      "inputs": [],
      "name": "acceptedToken",
      "outputs": [
        {
          "name": "",
          "type": "address"
        }
      ],
      "payable": false,
      "stateMutability": "view",
      "type": "function"
    }
  ],
  "bytecode": "0x608060405234801561001057600080fd5b50604051602080610a3a8339810180604052602081101561003057600080fd5b81019080805190602001909291905050506100576301ffc9a760e01b6102b760201b60201c565b600073ffffffffffffffffffffffffffffffffffffffff168173ffffffffffffffffffffffffffffffffffffffff16141561009157600080fd5b8073ffffffffffffffffffffffffffffffffffffffff166301ffc9a7634bbee2df60e01b6040518263ffffffff1660e01b815260040180827bffffffffffffffffffffffffffffffffffffffffffffffffffffffff19167bffffffffffffffffffffffffffffffffffffffffffffffffffffffff1916815260200191505060206040518083038186803b15801561012757600080fd5b505afa15801561013b573d6000803e3d6000fd5b505050506040513d602081101561015157600080fd5b8101908080519060200190929190505050801561023b57508073ffffffffffffffffffffffffffffffffffffffff166301ffc9a763fb9ec8ce60e01b6040518263ffffffff1660e01b815260040180827bffffffffffffffffffffffffffffffffffffffffffffffffffffffff19167bffffffffffffffffffffffffffffffffffffffffffffffffffffffff1916815260200191505060206040518083038186803b1580156101ff57600080fd5b505afa158015610213573d6000803e3d6000fd5b505050506040513d602081101561022957600080fd5b81019080805190602001909291905050505b61024457600080fd5b80600160006101000a81548173ffffffffffffffffffffffffffffffffffffffff021916908373ffffffffffffffffffffffffffffffffffffffff16021790555061029b6388a7ca5c60e01b6102b760201b60201c565b6102b1637b04a2d060e01b6102b760201b60201c565b50610356565b63ffffffff60e01b817bffffffffffffffffffffffffffffffffffffffffffffffffffffffff191614156102ea57600080fd5b6001600080837bffffffffffffffffffffffffffffffffffffffffffffffffffffffff19167bffffffffffffffffffffffffffffffffffffffffffffffffffffffff1916815260200190815260200160002060006101000a81548160ff02191690831515021790555050565b6106d5806103656000396000f3fe608060405234801561001057600080fd5b506004361061004c5760003560e01c806301ffc9a714610051578063451c3d80146100b65780637b04a2d01461010057806388a7ca5c14610237575b600080fd5b61009c6004803603602081101561006757600080fd5b8101908080357bffffffffffffffffffffffffffffffffffffffffffffffffffffffff1916906020019092919050505061038e565b604051808215151515815260200191505060405180910390f35b6100be6103f5565b604051808273ffffffffffffffffffffffffffffffffffffffff1673ffffffffffffffffffffffffffffffffffffffff16815260200191505060405180910390f35b6101e36004803603606081101561011657600080fd5b81019080803573ffffffffffffffffffffffffffffffffffffffff169060200190929190803590602001909291908035906020019064010000000081111561015d57600080fd5b82018360208201111561016f57600080fd5b8035906020019184600183028401116401000000008311171561019157600080fd5b91908080601f016020809104026020016040519081016040528093929190818152602001838380828437600081840152601f19601f82011690508083019250505050505050919291929050505061041f565b60405180827bffffffffffffffffffffffffffffffffffffffffffffffffffffffff19167bffffffffffffffffffffffffffffffffffffffffffffffffffffffff1916815260200191505060405180910390f35b61033a6004803603608081101561024d57600080fd5b81019080803573ffffffffffffffffffffffffffffffffffffffff169060200190929190803573ffffffffffffffffffffffffffffffffffffffff16906020019092919080359060200190929190803590602001906401000000008111156102b457600080fd5b8201836020820111156102c657600080fd5b803590602001918460018302840111640100000000831117156102e857600080fd5b91908080601f016020809104026020016040519081016040528093929190818152602001838380828437600081840152601f19601f820116905080830192505050505050509192919290505050610552565b60405180827bffffffffffffffffffffffffffffffffffffffffffffffffffffffff19167bffffffffffffffffffffffffffffffffffffffffffffffffffffffff1916815260200191505060405180910390f35b6000806000837bffffffffffffffffffffffffffffffffffffffffffffffffffffffff19167bffffffffffffffffffffffffffffffffffffffffffffffffffffffff1916815260200190815260200160002060009054906101000a900460ff169050919050565b6000600160009054906101000a900473ffffffffffffffffffffffffffffffffffffffff16905090565b6000600160009054906101000a900473ffffffffffffffffffffffffffffffffffffffff1673ffffffffffffffffffffffffffffffffffffffff163373ffffffffffffffffffffffffffffffffffffffff161461047b57600080fd5b8373ffffffffffffffffffffffffffffffffffffffff167ffc47604465ac19edea172256bab2469184c3a6770701541635cf84241c2f24b484846040518083815260200180602001828103825283818151815260200191508051906020019080838360005b838110156104fb5780820151818401526020810190506104e0565b50505050905090810190601f1680156105285780820380516001836020036101000a031916815260200191505b50935050505060405180910390a261054184848461069e565b637b04a2d060e01b90509392505050565b6000600160009054906101000a900473ffffffffffffffffffffffffffffffffffffffff1673ffffffffffffffffffffffffffffffffffffffff163373ffffffffffffffffffffffffffffffffffffffff16146105ae57600080fd5b8373ffffffffffffffffffffffffffffffffffffffff168573ffffffffffffffffffffffffffffffffffffffff167f01db5e58326b109682dc160b2e51aa7bf7e8d8ccf74bc242a3c502179378905585856040518083815260200180602001828103825283818151815260200191508051906020019080838360005b8381101561064557808201518184015260208101905061062a565b50505050905090810190601f1680156106725780820380516001836020036101000a031916815260200191505b50935050505060405180910390a361068c858585856106a3565b6388a7ca5c60e01b9050949350505050565b505050565b5050505056fea165627a7a72305820917825c904602e9b583d925d0165d7dae0108593850cba4b4d0d45e8021d7a0d0029",
  "source": "pragma solidity ^0.5.8;\n\nimport \"openzeppelin-solidity/contracts/introspection/ERC165Checker.sol\";\n\nimport \"../token/ERC1363/IERC1363.sol\";\nimport \"../token/ERC1363/IERC1363Receiver.sol\";\nimport \"../token/ERC1363/IERC1363Spender.sol\";\n\n/**\n * @title ERC1363Payable\n * @author Vittorio Minacori (https://github.com/vittominacori)\n * @dev Implementation proposal of a contract that wants to accept ERC1363 payments\n */\ncontract ERC1363Payable is IERC1363Receiver, IERC1363Spender, ERC165 {\n    using ERC165Checker for address;\n\n    /**\n     * @dev Magic value to be returned upon successful reception of ERC1363 tokens\n     *  Equals to `bytes4(keccak256(\"onTransferReceived(address,address,uint256,bytes)\"))`,\n     *  which can be also obtained as `IERC1363Receiver(0).onTransferReceived.selector`\n     */\n    bytes4 internal constant _INTERFACE_ID_ERC1363_RECEIVER = 0x88a7ca5c;\n\n    /**\n     * @dev Magic value to be returned upon successful approval of ERC1363 tokens.\n     * Equals to `bytes4(keccak256(\"onApprovalReceived(address,uint256,bytes)\"))`,\n     * which can be also obtained as `IERC1363Spender(0).onApprovalReceived.selector`\n     */\n    bytes4 internal constant _INTERFACE_ID_ERC1363_SPENDER = 0x7b04a2d0;\n\n    /*\n     * Note: the ERC-165 identifier for the ERC1363 token transfer\n     * 0x4bbee2df ===\n     *   bytes4(keccak256('transferAndCall(address,uint256)')) ^\n     *   bytes4(keccak256('transferAndCall(address,uint256,bytes)')) ^\n     *   bytes4(keccak256('transferFromAndCall(address,address,uint256)')) ^\n     *   bytes4(keccak256('transferFromAndCall(address,address,uint256,bytes)'))\n     */\n    bytes4 private constant _INTERFACE_ID_ERC1363_TRANSFER = 0x4bbee2df;\n\n    /*\n     * Note: the ERC-165 identifier for the ERC1363 token approval\n     * 0xfb9ec8ce ===\n     *   bytes4(keccak256('approveAndCall(address,uint256)')) ^\n     *   bytes4(keccak256('approveAndCall(address,uint256,bytes)'))\n     */\n    bytes4 private constant _INTERFACE_ID_ERC1363_APPROVE = 0xfb9ec8ce;\n\n    event TokensReceived(\n        address indexed operator,\n        address indexed from,\n        uint256 value,\n        bytes data\n    );\n\n    event TokensApproved(\n        address indexed owner,\n        uint256 value,\n        bytes data\n    );\n\n    // The ERC1363 token accepted\n    IERC1363 private _acceptedToken;\n\n    /**\n     * @param acceptedToken Address of the token being accepted\n     */\n    constructor(IERC1363 acceptedToken) public {\n        require(address(acceptedToken) != address(0));\n        require(\n            acceptedToken.supportsInterface(_INTERFACE_ID_ERC1363_TRANSFER) &&\n            acceptedToken.supportsInterface(_INTERFACE_ID_ERC1363_APPROVE)\n        );\n\n        _acceptedToken = acceptedToken;\n\n        // register the supported interface to conform to IERC1363Receiver and IERC1363Spender via ERC165\n        _registerInterface(_INTERFACE_ID_ERC1363_RECEIVER);\n        _registerInterface(_INTERFACE_ID_ERC1363_SPENDER);\n    }\n\n    /*\n     * @dev Note: remember that the token contract address is always the message sender.\n     * @param operator address The address which called `transferAndCall` or `transferFromAndCall` function\n     * @param from address The address which are token transferred from\n     * @param value uint256 The amount of tokens transferred\n     * @param data bytes Additional data with no specified format\n     */\n    function onTransferReceived(address operator, address from, uint256 value, bytes memory data) public returns (bytes4) { // solhint-disable-line  max-line-length\n        require(msg.sender == address(_acceptedToken));\n\n        emit TokensReceived(operator, from, value, data);\n\n        _transferReceived(operator, from, value, data);\n\n        return _INTERFACE_ID_ERC1363_RECEIVER;\n    }\n\n    /*\n     * @dev Note: remember that the token contract address is always the message sender.\n     * @param owner address The address which called `approveAndCall` function\n     * @param value uint256 The amount of tokens to be spent\n     * @param data bytes Additional data with no specified format\n     */\n    function onApprovalReceived(address owner, uint256 value, bytes memory data) public returns (bytes4) {\n        require(msg.sender == address(_acceptedToken));\n\n        emit TokensApproved(owner, value, data);\n\n        _approvalReceived(owner, value, data);\n\n        return _INTERFACE_ID_ERC1363_SPENDER;\n    }\n\n    /**\n     * @dev The ERC1363 token accepted\n     */\n    function acceptedToken() public view returns (IERC1363) {\n        return _acceptedToken;\n    }\n\n    /**\n     * @dev Called after validating a `onTransferReceived`. Override this method to\n     * make your stuffs within your contract.\n     * @param operator address The address which called `transferAndCall` or `transferFromAndCall` function\n     * @param from address The address which are token transferred from\n     * @param value uint256 The amount of tokens transferred\n     * @param data bytes Additional data with no specified format\n     */\n    function _transferReceived(address operator, address from, uint256 value, bytes memory data) internal {\n        // solhint-disable-previous-line no-empty-blocks\n\n        // optional override\n    }\n\n    /**\n     * @dev Called after validating a `onApprovalReceived`. Override this method to\n     * make your stuffs within your contract.\n     * @param owner address The address which called `approveAndCall` function\n     * @param value uint256 The amount of tokens to be spent\n     * @param data bytes Additional data with no specified format\n     */\n    function _approvalReceived(address owner, uint256 value, bytes memory data) internal {\n        // solhint-disable-previous-line no-empty-blocks\n\n        // optional override\n    }\n}\n",
  "sourcePath": "erc-payable-token/contracts/payment/ERC1363Payable.sol",
  "compiler": {
    "name": "solc",
    "version": "0.5.8+commit.23d335f2.Emscripten.clang"
  },
  "schemaVersion": "3.0.9",
  "updatedAt": "2019-05-10T14:36:49.397Z",
  "devdoc": {
    "author": "Vittorio Minacori (https://github.com/vittominacori)",
    "details": "Implementation proposal of a contract that wants to accept ERC1363 payments",
    "methods": {
      "acceptedToken()": {
        "details": "The ERC1363 token accepted"
      },
      "constructor": {
        "params": {
          "acceptedToken": "Address of the token being accepted"
        }
      },
      "supportsInterface(bytes4)": {
        "details": "implement supportsInterface(bytes4) using a lookup table"
      }
    },
    "title": "ERC1363Payable"
  },
  "userdoc": {
    "methods": {}
  }
}