{
  "contractName": "ERC1363",
  "abi": [
    {
      "constant": true,
      "inputs": [
        {
          "name": "interfaceId",
          "type": "bytes4"
        }
      ],
      "name": "supportsInterface",
      "outputs": [
        {
          "name": "",
          "type": "bool"
        }
      ],
      "payable": false,
      "stateMutability": "view",
      "type": "function"
    },
    {
      "constant": false,
      "inputs": [
        {
          "name": "spender",
          "type": "address"
        },
        {
          "name": "value",
          "type": "uint256"
        }
      ],
      "name": "approve",
      "outputs": [
        {
          "name": "",
          "type": "bool"
        }
      ],
      "payable": false,
      "stateMutability": "nonpayable",
      "type": "function"
    },
    {
      "constant": true,
      "inputs": [],
      "name": "totalSupply",
      "outputs": [
        {
          "name": "",
          "type": "uint256"
        }
      ],
      "payable": false,
      "stateMutability": "view",
      "type": "function"
    },
    {
      "constant": false,
      "inputs": [
        {
          "name": "from",
          "type": "address"
        },
        {
          "name": "to",
          "type": "address"
        },
        {
          "name": "value",
          "type": "uint256"
        }
      ],
      "name": "transferFrom",
      "outputs": [
        {
          "name": "",
          "type": "bool"
        }
      ],
      "payable": false,
      "stateMutability": "nonpayable",
      "type": "function"
    },
    {
      "constant": false,
      "inputs": [
        {
          "name": "spender",
          "type": "address"
        },
        {
          "name": "addedValue",
          "type": "uint256"
        }
      ],
      "name": "increaseAllowance",
      "outputs": [
        {
          "name": "",
          "type": "bool"
        }
      ],
      "payable": false,
      "stateMutability": "nonpayable",
      "type": "function"
    },
    {
      "constant": true,
      "inputs": [
        {
          "name": "owner",
          "type": "address"
        }
      ],
      "name": "balanceOf",
      "outputs": [
        {
          "name": "",
          "type": "uint256"
        }
      ],
      "payable": false,
      "stateMutability": "view",
      "type": "function"
    },
    {
      "constant": false,
      "inputs": [
        {
          "name": "spender",
          "type": "address"
        },
        {
          "name": "subtractedValue",
          "type": "uint256"
        }
      ],
      "name": "decreaseAllowance",
      "outputs": [
        {
          "name": "",
          "type": "bool"
        }
      ],
      "payable": false,
      "stateMutability": "nonpayable",
      "type": "function"
    },
    {
      "constant": false,
      "inputs": [
        {
          "name": "to",
          "type": "address"
        },
        {
          "name": "value",
          "type": "uint256"
        }
      ],
      "name": "transfer",
      "outputs": [
        {
          "name": "",
          "type": "bool"
        }
      ],
      "payable": false,
      "stateMutability": "nonpayable",
      "type": "function"
    },
    {
      "constant": true,
      "inputs": [
        {
          "name": "owner",
          "type": "address"
        },
        {
          "name": "spender",
          "type": "address"
        }
      ],
      "name": "allowance",
      "outputs": [
        {
          "name": "",
          "type": "uint256"
        }
      ],
      "payable": false,
      "stateMutability": "view",
      "type": "function"
    },
    {
      "inputs": [],
      "payable": false,
      "stateMutability": "nonpayable",
      "type": "constructor"
    },
    {
      "anonymous": false,
      "inputs": [
        {
          "indexed": true,
          "name": "from",
          "type": "address"
        },
        {
          "indexed": true,
          "name": "to",
          "type": "address"
        },
        {
          "indexed": false,
          "name": "value",
          "type": "uint256"
        }
      ],
      "name": "Transfer",
      "type": "event"
    },
    {
      "anonymous": false,
      "inputs": [
        {
          "indexed": true,
          "name": "owner",
          "type": "address"
        },
        {
          "indexed": true,
          "name": "spender",
          "type": "address"
        },
        {
          "indexed": false,
          "name": "value",
          "type": "uint256"
        }
      ],
      "name": "Approval",
      "type": "event"
    },
    {
      "constant": false,
      "inputs": [
        {
          "name": "to",
          "type": "address"
        },
        {
          "name": "value",
          "type": "uint256"
        }
      ],
      "name": "transferAndCall",
      "outputs": [
        {
          "name": "",
          "type": "bool"
        }
      ],
      "payable": false,
      "stateMutability": "nonpayable",
      "type": "function"
    },
    {
      "constant": false,
      "inputs": [
        {
          "name": "to",
          "type": "address"
        },
        {
          "name": "value",
          "type": "uint256"
        },
        {
          "name": "data",
          "type": "bytes"
        }
      ],
      "name": "transferAndCall",
      "outputs": [
        {
          "name": "",
          "type": "bool"
        }
      ],
      "payable": false,
      "stateMutability": "nonpayable",
      "type": "function"
    },
    {
      "constant": false,
      "inputs": [
        {
          "name": "from",
          "type": "address"
        },
        {
          "name": "to",
          "type": "address"
        },
        {
          "name": "value",
          "type": "uint256"
        },
        {
          "name": "data",
          "type": "bytes"
        }
      ],
      "name": "transferFromAndCall",
      "outputs": [
        {
          "name": "",
          "type": "bool"
        }
      ],
      "payable": false,
      "stateMutability": "nonpayable",
      "type": "function"
    },
    {
      "constant": false,
      "inputs": [
        {
          "name": "from",
          "type": "address"
        },
        {
          "name": "to",
          "type": "address"
        },
        {
          "name": "value",
          "type": "uint256"
        }
      ],
      "name": "transferFromAndCall",
      "outputs": [
        {
          "name": "",
          "type": "bool"
        }
      ],
      "payable": false,
      "stateMutability": "nonpayable",
      "type": "function"
    },
    {
      "constant": false,
      "inputs": [
        {
          "name": "spender",
          "type": "address"
        },
        {
          "name": "value",
          "type": "uint256"
        }
      ],
      "name": "approveAndCall",
      "outputs": [
        {
          "name": "",
          "type": "bool"
        }
      ],
      "payable": false,
      "stateMutability": "nonpayable",
      "type": "function"
    },
    {
      "constant": false,
      "inputs": [
        {
          "name": "spender",
          "type": "address"
        },
        {
          "name": "value",
          "type": "uint256"
        },
        {
          "name": "data",
          "type": "bytes"
        }
      ],
      "name": "approveAndCall",
      "outputs": [
        {
          "name": "",
          "type": "bool"
        }
      ],
      "payable": false,
      "stateMutability": "nonpayable",
      "type": "function"
    }
  ],
  "bytecode": "0x608060405234801561001057600080fd5b506100276301ffc9a760e01b61005860201b60201c565b61003d634bbee2df60e01b61005860201b60201c565b61005363fb9ec8ce60e01b61005860201b60201c565b6100f8565b63ffffffff60e01b817bffffffffffffffffffffffffffffffffffffffffffffffffffffffff1916141561008b57600080fd5b600160036000837bffffffffffffffffffffffffffffffffffffffffffffffffffffffff19167bffffffffffffffffffffffffffffffffffffffffffffffffffffffff1916815260200190815260200160002060006101000a81548160ff02191690831515021790555050565b611488806101076000396000f3fe608060405234801561001057600080fd5b50600436106100f55760003560e01c80634000aea011610097578063c1d34b8911610066578063c1d34b89146105bc578063cae9ca51146106d9578063d8fbe994146107d6578063dd62ed3e1461085c576100f5565b80634000aea01461039b57806370a0823114610498578063a457c2d7146104f0578063a9059cbb14610556576100f5565b806318160ddd116100d357806318160ddd1461022b57806323b872dd146102495780633177029f146102cf5780633950935114610335576100f5565b806301ffc9a7146100fa578063095ea7b31461015f5780631296ee62146101c5575b600080fd5b6101456004803603602081101561011057600080fd5b8101908080357bffffffffffffffffffffffffffffffffffffffffffffffffffffffff191690602001909291905050506108d4565b604051808215151515815260200191505060405180910390f35b6101ab6004803603604081101561017557600080fd5b81019080803573ffffffffffffffffffffffffffffffffffffffff1690602001909291908035906020019092919050505061093c565b604051808215151515815260200191505060405180910390f35b610211600480360360408110156101db57600080fd5b81019080803573ffffffffffffffffffffffffffffffffffffffff16906020019092919080359060200190929190505050610953565b604051808215151515815260200191505060405180910390f35b610233610977565b6040518082815260200191505060405180910390f35b6102b56004803603606081101561025f57600080fd5b81019080803573ffffffffffffffffffffffffffffffffffffffff169060200190929190803573ffffffffffffffffffffffffffffffffffffffff16906020019092919080359060200190929190505050610981565b604051808215151515815260200191505060405180910390f35b61031b600480360360408110156102e557600080fd5b81019080803573ffffffffffffffffffffffffffffffffffffffff16906020019092919080359060200190929190505050610a32565b604051808215151515815260200191505060405180910390f35b6103816004803603604081101561034b57600080fd5b81019080803573ffffffffffffffffffffffffffffffffffffffff16906020019092919080359060200190929190505050610a56565b604051808215151515815260200191505060405180910390f35b61047e600480360360608110156103b157600080fd5b81019080803573ffffffffffffffffffffffffffffffffffffffff16906020019092919080359060200190929190803590602001906401000000008111156103f857600080fd5b82018360208201111561040a57600080fd5b8035906020019184600183028401116401000000008311171561042c57600080fd5b91908080601f016020809104026020016040519081016040528093929190818152602001838380828437600081840152601f19601f820116905080830192505050505050509192919290505050610afb565b604051808215151515815260200191505060405180910390f35b6104da600480360360208110156104ae57600080fd5b81019080803573ffffffffffffffffffffffffffffffffffffffff169060200190929190505050610b30565b6040518082815260200191505060405180910390f35b61053c6004803603604081101561050657600080fd5b81019080803573ffffffffffffffffffffffffffffffffffffffff16906020019092919080359060200190929190505050610b78565b604051808215151515815260200191505060405180910390f35b6105a26004803603604081101561056c57600080fd5b81019080803573ffffffffffffffffffffffffffffffffffffffff16906020019092919080359060200190929190505050610c1d565b604051808215151515815260200191505060405180910390f35b6106bf600480360360808110156105d257600080fd5b81019080803573ffffffffffffffffffffffffffffffffffffffff169060200190929190803573ffffffffffffffffffffffffffffffffffffffff169060200190929190803590602001909291908035906020019064010000000081111561063957600080fd5b82018360208201111561064b57600080fd5b8035906020019184600183028401116401000000008311171561066d57600080fd5b91908080601f016020809104026020016040519081016040528093929190818152602001838380828437600081840152601f19601f820116905080830192505050505050509192919290505050610c34565b604051808215151515815260200191505060405180910390f35b6107bc600480360360608110156106ef57600080fd5b81019080803573ffffffffffffffffffffffffffffffffffffffff169060200190929190803590602001909291908035906020019064010000000081111561073657600080fd5b82018360208201111561074857600080fd5b8035906020019184600183028401116401000000008311171561076a57600080fd5b91908080601f016020809104026020016040519081016040528093929190818152602001838380828437600081840152601f19601f820116905080830192505050505050509192919290505050610c6b565b604051808215151515815260200191505060405180910390f35b610842600480360360608110156107ec57600080fd5b81019080803573ffffffffffffffffffffffffffffffffffffffff169060200190929190803573ffffffffffffffffffffffffffffffffffffffff16906020019092919080359060200190929190505050610c97565b604051808215151515815260200191505060405180910390f35b6108be6004803603604081101561087257600080fd5b81019080803573ffffffffffffffffffffffffffffffffffffffff169060200190929190803573ffffffffffffffffffffffffffffffffffffffff169060200190929190505050610cbd565b6040518082815260200191505060405180910390f35b600060036000837bffffffffffffffffffffffffffffffffffffffffffffffffffffffff19167bffffffffffffffffffffffffffffffffffffffffffffffffffffffff1916815260200190815260200160002060009054906101000a900460ff169050919050565b6000610949338484610d44565b6001905092915050565b600061096f838360405180602001604052806000815250610afb565b905092915050565b6000600254905090565b600061098e848484610ea3565b610a278433610a2285600160008a73ffffffffffffffffffffffffffffffffffffffff1673ffffffffffffffffffffffffffffffffffffffff16815260200190815260200160002060003373ffffffffffffffffffffffffffffffffffffffff1673ffffffffffffffffffffffffffffffffffffffff1681526020019081526020016000205461106d90919063ffffffff16565b610d44565b600190509392505050565b6000610a4e838360405180602001604052806000815250610c6b565b905092915050565b6000610af13384610aec85600160003373ffffffffffffffffffffffffffffffffffffffff1673ffffffffffffffffffffffffffffffffffffffff16815260200190815260200160002060008973ffffffffffffffffffffffffffffffffffffffff1673ffffffffffffffffffffffffffffffffffffffff1681526020019081526020016000205461108d90919063ffffffff16565b610d44565b6001905092915050565b6000610b078484610c1d565b610b1057600080fd5b610b1c338585856110ac565b610b2557600080fd5b600190509392505050565b60008060008373ffffffffffffffffffffffffffffffffffffffff1673ffffffffffffffffffffffffffffffffffffffff168152602001908152602001600020549050919050565b6000610c133384610c0e85600160003373ffffffffffffffffffffffffffffffffffffffff1673ffffffffffffffffffffffffffffffffffffffff16815260200190815260200160002060008973ffffffffffffffffffffffffffffffffffffffff1673ffffffffffffffffffffffffffffffffffffffff1681526020019081526020016000205461106d90919063ffffffff16565b610d44565b6001905092915050565b6000610c2a338484610ea3565b6001905092915050565b6000610c41858585610981565b610c4a57600080fd5b610c56858585856110ac565b610c5f57600080fd5b60019050949350505050565b6000610c77848461093c565b50610c83848484611295565b610c8c57600080fd5b600190509392505050565b6000610cb484848460405180602001604052806000815250610c34565b90509392505050565b6000600160008473ffffffffffffffffffffffffffffffffffffffff1673ffffffffffffffffffffffffffffffffffffffff16815260200190815260200160002060008373ffffffffffffffffffffffffffffffffffffffff1673ffffffffffffffffffffffffffffffffffffffff16815260200190815260200160002054905092915050565b600073ffffffffffffffffffffffffffffffffffffffff168273ffffffffffffffffffffffffffffffffffffffff161415610d7e57600080fd5b600073ffffffffffffffffffffffffffffffffffffffff168373ffffffffffffffffffffffffffffffffffffffff161415610db857600080fd5b80600160008573ffffffffffffffffffffffffffffffffffffffff1673ffffffffffffffffffffffffffffffffffffffff16815260200190815260200160002060008473ffffffffffffffffffffffffffffffffffffffff1673ffffffffffffffffffffffffffffffffffffffff168152602001908152602001600020819055508173ffffffffffffffffffffffffffffffffffffffff168373ffffffffffffffffffffffffffffffffffffffff167f8c5be1e5ebec7d5bd14f71427d1e84f3dd0314c0f7b2291e5b200ac8c7c3b925836040518082815260200191505060405180910390a3505050565b600073ffffffffffffffffffffffffffffffffffffffff168273ffffffffffffffffffffffffffffffffffffffff161415610edd57600080fd5b610f2e816000808673ffffffffffffffffffffffffffffffffffffffff1673ffffffffffffffffffffffffffffffffffffffff1681526020019081526020016000205461106d90919063ffffffff16565b6000808573ffffffffffffffffffffffffffffffffffffffff1673ffffffffffffffffffffffffffffffffffffffff16815260200190815260200160002081905550610fc1816000808573ffffffffffffffffffffffffffffffffffffffff1673ffffffffffffffffffffffffffffffffffffffff1681526020019081526020016000205461108d90919063ffffffff16565b6000808473ffffffffffffffffffffffffffffffffffffffff1673ffffffffffffffffffffffffffffffffffffffff168152602001908152602001600020819055508173ffffffffffffffffffffffffffffffffffffffff168373ffffffffffffffffffffffffffffffffffffffff167fddf252ad1be2c89b69c2b068fc378daa952ba7f163c4a11628f55a4df523b3ef836040518082815260200191505060405180910390a3505050565b60008282111561107c57600080fd5b600082840390508091505092915050565b6000808284019050838110156110a257600080fd5b8091505092915050565b60006110cd8473ffffffffffffffffffffffffffffffffffffffff16611449565b6110da576000905061128d565b60008473ffffffffffffffffffffffffffffffffffffffff166388a7ca5c338887876040518563ffffffff1660e01b8152600401808573ffffffffffffffffffffffffffffffffffffffff1673ffffffffffffffffffffffffffffffffffffffff1681526020018473ffffffffffffffffffffffffffffffffffffffff1673ffffffffffffffffffffffffffffffffffffffff16815260200183815260200180602001828103825283818151815260200191508051906020019080838360005b838110156111b557808201518184015260208101905061119a565b50505050905090810190601f1680156111e25780820380516001836020036101000a031916815260200191505b5095505050505050602060405180830381600087803b15801561120457600080fd5b505af1158015611218573d6000803e3d6000fd5b505050506040513d602081101561122e57600080fd5b810190808051906020019092919050505090506388a7ca5c60e01b7bffffffffffffffffffffffffffffffffffffffffffffffffffffffff1916817bffffffffffffffffffffffffffffffffffffffffffffffffffffffff1916149150505b949350505050565b60006112b68473ffffffffffffffffffffffffffffffffffffffff16611449565b6112c35760009050611442565b60008473ffffffffffffffffffffffffffffffffffffffff16637b04a2d03386866040518463ffffffff1660e01b8152600401808473ffffffffffffffffffffffffffffffffffffffff1673ffffffffffffffffffffffffffffffffffffffff16815260200183815260200180602001828103825283818151815260200191508051906020019080838360005b8381101561136b578082015181840152602081019050611350565b50505050905090810190601f1680156113985780820380516001836020036101000a031916815260200191505b50945050505050602060405180830381600087803b1580156113b957600080fd5b505af11580156113cd573d6000803e3d6000fd5b505050506040513d60208110156113e357600080fd5b81019080805190602001909291905050509050637b04a2d060e01b7bffffffffffffffffffffffffffffffffffffffffffffffffffffffff1916817bffffffffffffffffffffffffffffffffffffffffffffffffffffffff1916149150505b9392505050565b600080823b90506000811191505091905056fea165627a7a723058200ecbc318bc172ce743ded62d6532c6eb2b6f43efd0a776b5449e32451471712b0029",
  "source": "pragma solidity ^0.5.8;\n\nimport \"openzeppelin-solidity/contracts/utils/Address.sol\";\nimport \"openzeppelin-solidity/contracts/introspection/ERC165Checker.sol\";\nimport \"openzeppelin-solidity/contracts/token/ERC20/ERC20.sol\";\n\nimport \"./IERC1363.sol\";\nimport \"./IERC1363Receiver.sol\";\nimport \"./IERC1363Spender.sol\";\n\n/**\n * @title ERC1363\n * @author Vittorio Minacori (https://github.com/vittominacori)\n * @dev Implementation of an ERC1363 interface\n */\ncontract ERC1363 is ERC20, IERC1363 {\n    using Address for address;\n\n    /*\n     * Note: the ERC-165 identifier for this interface is 0x4bbee2df.\n     * 0x4bbee2df ===\n     *   bytes4(keccak256('transferAndCall(address,uint256)')) ^\n     *   bytes4(keccak256('transferAndCall(address,uint256,bytes)')) ^\n     *   bytes4(keccak256('transferFromAndCall(address,address,uint256)')) ^\n     *   bytes4(keccak256('transferFromAndCall(address,address,uint256,bytes)'))\n     */\n    bytes4 internal constant _INTERFACE_ID_ERC1363_TRANSFER = 0x4bbee2df;\n\n    /*\n     * Note: the ERC-165 identifier for this interface is 0xfb9ec8ce.\n     * 0xfb9ec8ce ===\n     *   bytes4(keccak256('approveAndCall(address,uint256)')) ^\n     *   bytes4(keccak256('approveAndCall(address,uint256,bytes)'))\n     */\n    bytes4 internal constant _INTERFACE_ID_ERC1363_APPROVE = 0xfb9ec8ce;\n\n    // Equals to `bytes4(keccak256(\"onTransferReceived(address,address,uint256,bytes)\"))`\n    // which can be also obtained as `IERC1363Receiver(0).onTransferReceived.selector`\n    bytes4 private constant _ERC1363_RECEIVED = 0x88a7ca5c;\n\n    // Equals to `bytes4(keccak256(\"onApprovalReceived(address,uint256,bytes)\"))`\n    // which can be also obtained as `IERC1363Spender(0).onApprovalReceived.selector`\n    bytes4 private constant _ERC1363_APPROVED = 0x7b04a2d0;\n\n    constructor() public {\n        // register the supported interfaces to conform to ERC1363 via ERC165\n        _registerInterface(_INTERFACE_ID_ERC1363_TRANSFER);\n        _registerInterface(_INTERFACE_ID_ERC1363_APPROVE);\n    }\n\n    function transferAndCall(address to, uint256 value) public returns (bool) {\n        return transferAndCall(to, value, \"\");\n    }\n\n    function transferAndCall(address to, uint256 value, bytes memory data) public returns (bool) {\n        require(transfer(to, value));\n        require(_checkAndCallTransfer(msg.sender, to, value, data));\n        return true;\n    }\n\n    function transferFromAndCall(address from, address to, uint256 value) public returns (bool) {\n        return transferFromAndCall(from, to, value, \"\");\n    }\n\n    function transferFromAndCall(address from, address to, uint256 value, bytes memory data) public returns (bool) {\n        require(transferFrom(from, to, value));\n        require(_checkAndCallTransfer(from, to, value, data));\n        return true;\n    }\n\n    function approveAndCall(address spender, uint256 value) public returns (bool) {\n        return approveAndCall(spender, value, \"\");\n    }\n\n    function approveAndCall(address spender, uint256 value, bytes memory data) public returns (bool) {\n        approve(spender, value);\n        require(_checkAndCallApprove(spender, value, data));\n        return true;\n    }\n\n    /**\n     * @dev Internal function to invoke `onTransferReceived` on a target address\n     *  The call is not executed if the target address is not a contract\n     * @param from address Representing the previous owner of the given token value\n     * @param to address Target address that will receive the tokens\n     * @param value uint256 The amount mount of tokens to be transferred\n     * @param data bytes Optional data to send along with the call\n     * @return whether the call correctly returned the expected magic value\n     */\n    function _checkAndCallTransfer(address from, address to, uint256 value, bytes memory data) internal returns (bool) {\n        if (!to.isContract()) {\n            return false;\n        }\n        bytes4 retval = IERC1363Receiver(to).onTransferReceived(\n            msg.sender, from, value, data\n        );\n        return (retval == _ERC1363_RECEIVED);\n    }\n\n    /**\n     * @dev Internal function to invoke `onApprovalReceived` on a target address\n     *  The call is not executed if the target address is not a contract\n     * @param spender address The address which will spend the funds\n     * @param value uint256 The amount of tokens to be spent\n     * @param data bytes Optional data to send along with the call\n     * @return whether the call correctly returned the expected magic value\n     */\n    function _checkAndCallApprove(address spender, uint256 value, bytes memory data) internal returns (bool) {\n        if (!spender.isContract()) {\n            return false;\n        }\n        bytes4 retval = IERC1363Spender(spender).onApprovalReceived(\n            msg.sender, value, data\n        );\n        return (retval == _ERC1363_APPROVED);\n    }\n}\n",
  "sourcePath": "erc-payable-token/contracts/token/ERC1363/ERC1363.sol",
  "compiler": {
    "name": "solc",
    "version": "0.5.8+commit.23d335f2.Emscripten.clang"
  },
  "schemaVersion": "3.0.9",
  "updatedAt": "2019-05-10T14:36:49.398Z",
  "devdoc": {
    "author": "Vittorio Minacori (https://github.com/vittominacori)",
    "details": "Implementation of an ERC1363 interface",
    "methods": {
      "allowance(address,address)": {
        "details": "Function to check the amount of tokens that an owner allowed to a spender.",
        "params": {
          "owner": "address The address which owns the funds.",
          "spender": "address The address which will spend the funds."
        },
        "return": "A uint256 specifying the amount of tokens still available for the spender."
      },
      "approve(address,uint256)": {
        "details": "Approve the passed address to spend the specified amount of tokens on behalf of msg.sender. Beware that changing an allowance with this method brings the risk that someone may use both the old and the new allowance by unfortunate transaction ordering. One possible solution to mitigate this race condition is to first reduce the spender's allowance to 0 and set the desired value afterwards: https://github.com/ethereum/EIPs/issues/20#issuecomment-263524729",
        "params": {
          "spender": "The address which will spend the funds.",
          "value": "The amount of tokens to be spent."
        }
      },
      "balanceOf(address)": {
        "details": "Gets the balance of the specified address.",
        "params": {
          "owner": "The address to query the balance of."
        },
        "return": "A uint256 representing the amount owned by the passed address."
      },
      "decreaseAllowance(address,uint256)": {
        "details": "Decrease the amount of tokens that an owner allowed to a spender. approve should be called when _allowed[msg.sender][spender] == 0. To decrement allowed value is better to use this function to avoid 2 calls (and wait until the first transaction is mined) From MonolithDAO Token.sol Emits an Approval event.",
        "params": {
          "spender": "The address which will spend the funds.",
          "subtractedValue": "The amount of tokens to decrease the allowance by."
        }
      },
      "increaseAllowance(address,uint256)": {
        "details": "Increase the amount of tokens that an owner allowed to a spender. approve should be called when _allowed[msg.sender][spender] == 0. To increment allowed value is better to use this function to avoid 2 calls (and wait until the first transaction is mined) From MonolithDAO Token.sol Emits an Approval event.",
        "params": {
          "addedValue": "The amount of tokens to increase the allowance by.",
          "spender": "The address which will spend the funds."
        }
      },
      "supportsInterface(bytes4)": {
        "details": "implement supportsInterface(bytes4) using a lookup table"
      },
      "totalSupply()": {
        "details": "Total number of tokens in existence"
      },
      "transfer(address,uint256)": {
        "details": "Transfer token to a specified address",
        "params": {
          "to": "The address to transfer to.",
          "value": "The amount to be transferred."
        }
      },
      "transferFrom(address,address,uint256)": {
        "details": "Transfer tokens from one address to another. Note that while this function emits an Approval event, this is not required as per the specification, and other compliant implementations may not emit the event.",
        "params": {
          "from": "address The address which you want to send tokens from",
          "to": "address The address which you want to transfer to",
          "value": "uint256 the amount of tokens to be transferred"
        }
      }
    },
    "title": "ERC1363"
  },
  "userdoc": {
    "methods": {}
  }
}