{
  "contractName": "PaymentGatewayRole",
  "abi": [
    {
      "inputs": [],
      "payable": false,
      "stateMutability": "nonpayable",
      "type": "constructor"
    },
    {
      "anonymous": false,
      "inputs": [
        {
          "indexed": true,
          "name": "account",
          "type": "address"
        }
      ],
      "name": "PaymentGatewayAdded",
      "type": "event"
    },
    {
      "anonymous": false,
      "inputs": [
        {
          "indexed": true,
          "name": "account",
          "type": "address"
        }
      ],
      "name": "PaymentGatewayRemoved",
      "type": "event"
    },
    {
      "constant": true,
      "inputs": [
        {
          "name": "account",
          "type": "address"
        }
      ],
      "name": "isPaymentGateway",
      "outputs": [
        {
          "name": "",
          "type": "bool"
        }
      ],
      "payable": false,
      "stateMutability": "view",
      "type": "function"
    },
    {
      "constant": false,
      "inputs": [
        {
          "name": "account",
          "type": "address"
        }
      ],
      "name": "addPaymentGateway",
      "outputs": [],
      "payable": false,
      "stateMutability": "nonpayable",
      "type": "function"
    },
    {
      "constant": false,
      "inputs": [],
      "name": "renouncePaymentGateway",
      "outputs": [],
      "payable": false,
      "stateMutability": "nonpayable",
      "type": "function"
    }
  ],
  "bytecode": "0x608060405234801561001057600080fd5b506100203361002560201b60201c565b6101c7565b61003d81600061008360201b6103901790919060201c565b8073ffffffffffffffffffffffffffffffffffffffff167f0b8ae40cf44c09a6239739a71841f906893ae431dc6b5e370d8d96413ca9fa7260405160405180910390a250565b600073ffffffffffffffffffffffffffffffffffffffff168173ffffffffffffffffffffffffffffffffffffffff1614156100bd57600080fd5b6100cd828261013560201b60201c565b156100d757600080fd5b60018260000160008373ffffffffffffffffffffffffffffffffffffffff1673ffffffffffffffffffffffffffffffffffffffff16815260200190815260200160002060006101000a81548160ff0219169083151502179055505050565b60008073ffffffffffffffffffffffffffffffffffffffff168273ffffffffffffffffffffffffffffffffffffffff16141561017057600080fd5b8260000160008373ffffffffffffffffffffffffffffffffffffffff1673ffffffffffffffffffffffffffffffffffffffff16815260200190815260200160002060009054906101000a900460ff16905092915050565b610468806101d66000396000f3fe608060405234801561001057600080fd5b50600436106100415760003560e01c8063c07833c714610046578063e3b9dd5914610050578063f38bcec0146100ac575b600080fd5b61004e6100f0565b005b6100926004803603602081101561006657600080fd5b81019080803573ffffffffffffffffffffffffffffffffffffffff1690602001909291905050506100fb565b604051808215151515815260200191505060405180910390f35b6100ee600480360360208110156100c257600080fd5b81019080803573ffffffffffffffffffffffffffffffffffffffff169060200190929190505050610118565b005b6100f93361019f565b565b60006101118260006101f990919063ffffffff16565b9050919050565b610121336100fb565b610193576040517f08c379a000000000000000000000000000000000000000000000000000000000815260040180806020018281038252601f8152602001807f4163636f756e74206973206e6f742061205061796d656e74476174657761790081525060200191505060405180910390fd5b61019c8161028b565b50565b6101b38160006102e590919063ffffffff16565b8073ffffffffffffffffffffffffffffffffffffffff167f4a75176bbd1382bb9f53b9677389212c98051d07dcb4ac95d733c44c74bfdfa360405160405180910390a250565b60008073ffffffffffffffffffffffffffffffffffffffff168273ffffffffffffffffffffffffffffffffffffffff16141561023457600080fd5b8260000160008373ffffffffffffffffffffffffffffffffffffffff1673ffffffffffffffffffffffffffffffffffffffff16815260200190815260200160002060009054906101000a900460ff16905092915050565b61029f81600061039090919063ffffffff16565b8073ffffffffffffffffffffffffffffffffffffffff167f0b8ae40cf44c09a6239739a71841f906893ae431dc6b5e370d8d96413ca9fa7260405160405180910390a250565b600073ffffffffffffffffffffffffffffffffffffffff168173ffffffffffffffffffffffffffffffffffffffff16141561031f57600080fd5b61032982826101f9565b61033257600080fd5b60008260000160008373ffffffffffffffffffffffffffffffffffffffff1673ffffffffffffffffffffffffffffffffffffffff16815260200190815260200160002060006101000a81548160ff0219169083151502179055505050565b600073ffffffffffffffffffffffffffffffffffffffff168173ffffffffffffffffffffffffffffffffffffffff1614156103ca57600080fd5b6103d482826101f9565b156103de57600080fd5b60018260000160008373ffffffffffffffffffffffffffffffffffffffff1673ffffffffffffffffffffffffffffffffffffffff16815260200190815260200160002060006101000a81548160ff021916908315150217905550505056fea165627a7a723058207e77dd651373873543e51c90d9484531c8a9f3b822957eda9f394e92cfde17960029",
  "source": "pragma solidity ^0.5.8;\n\n// Import the library 'Roles'\nimport \"openzeppelin-solidity/contracts/access/Roles.sol\";\n\n// Define a contract 'PaymentGatewayRole' to manage this role - add, remove, check\ncontract PaymentGatewayRole {\n  using Roles for Roles.Role;\n  // Define 2 events, one for Adding, and other for Removing\n  event PaymentGatewayAdded(address indexed account);\n  event PaymentGatewayRemoved(address indexed account);\n\n  // Define a struct 'PaymentGateways' by inheriting from 'Roles' library, struct Role\n  Roles.Role _paymentGateways;\n\n  // In the constructor make the address that deploys this contract the 1st PaymentGateway\n  constructor() public {\n    _addPaymentGateway(msg.sender);\n  }\n\n  // Define a modifier that checks to see if msg.sender has the appropriate role\n  modifier onlyPaymentGateway() {\n    require(isPaymentGateway(msg.sender), \"Account is not a PaymentGateway\");\n    _;\n  }\n\n  // Define a function 'isPaymentGateway' to check this role\n  function isPaymentGateway(address account) public view returns (bool) {\n    return _paymentGateways.has(account);\n  }\n\n  // Define a function 'addPaymentGateway' that adds this role\n  function addPaymentGateway(address account) public onlyPaymentGateway {\n    _addPaymentGateway(account);\n  }\n\n  // Define a function 'renouncePaymentGateway' to renounce this role\n  function renouncePaymentGateway() public {\n    _removePaymentGateway(msg.sender);\n  }\n\n  // Define an internal function '_addPaymentGateway' to add this role, called by 'addPaymentGateway'\n  function _addPaymentGateway(address account) internal {\n    _paymentGateways.add(account);\n    emit PaymentGatewayAdded(account);\n  }\n\n  // Define an internal function '_removePaymentGateway' to remove this role, called by 'removePaymentGateway'\n  function _removePaymentGateway(address account) internal {\n    _paymentGateways.remove(account);\n    emit PaymentGatewayRemoved(account);\n  }\n}",
  "sourcePath": "/Users/lagostini/PayPlusReceipt/contracts/receiptaccesscontrol/PaymentGatewayRole.sol",
  "compiler": {
    "name": "solc",
    "version": "0.5.8+commit.23d335f2.Emscripten.clang"
  },
  "schemaVersion": "3.0.9",
  "updatedAt": "2019-05-10T14:36:49.381Z",
  "devdoc": {
    "methods": {}
  },
  "userdoc": {
    "methods": {}
  }
}