{
  "contractName": "ReceiptApp",
  "abi": [
    {
      "constant": true,
      "inputs": [
        {
          "name": "interfaceId",
          "type": "bytes4"
        }
      ],
      "name": "supportsInterface",
      "outputs": [
        {
          "name": "",
          "type": "bool"
        }
      ],
      "payable": false,
      "stateMutability": "view",
      "type": "function"
    },
    {
      "constant": true,
      "inputs": [],
      "name": "acceptedToken",
      "outputs": [
        {
          "name": "",
          "type": "address"
        }
      ],
      "payable": false,
      "stateMutability": "view",
      "type": "function"
    },
    {
      "constant": false,
      "inputs": [],
      "name": "renounceOwnership",
      "outputs": [],
      "payable": false,
      "stateMutability": "nonpayable",
      "type": "function"
    },
    {
      "constant": false,
      "inputs": [
        {
          "name": "owner",
          "type": "address"
        },
        {
          "name": "value",
          "type": "uint256"
        },
        {
          "name": "data",
          "type": "bytes"
        }
      ],
      "name": "onApprovalReceived",
      "outputs": [
        {
          "name": "",
          "type": "bytes4"
        }
      ],
      "payable": false,
      "stateMutability": "nonpayable",
      "type": "function"
    },
    {
      "constant": false,
      "inputs": [
        {
          "name": "operator",
          "type": "address"
        },
        {
          "name": "from",
          "type": "address"
        },
        {
          "name": "value",
          "type": "uint256"
        },
        {
          "name": "data",
          "type": "bytes"
        }
      ],
      "name": "onTransferReceived",
      "outputs": [
        {
          "name": "",
          "type": "bytes4"
        }
      ],
      "payable": false,
      "stateMutability": "nonpayable",
      "type": "function"
    },
    {
      "constant": true,
      "inputs": [],
      "name": "owner",
      "outputs": [
        {
          "name": "",
          "type": "address"
        }
      ],
      "payable": false,
      "stateMutability": "view",
      "type": "function"
    },
    {
      "constant": true,
      "inputs": [],
      "name": "isOwner",
      "outputs": [
        {
          "name": "",
          "type": "bool"
        }
      ],
      "payable": false,
      "stateMutability": "view",
      "type": "function"
    },
    {
      "constant": false,
      "inputs": [],
      "name": "renouncePaymentGateway",
      "outputs": [],
      "payable": false,
      "stateMutability": "nonpayable",
      "type": "function"
    },
    {
      "constant": true,
      "inputs": [
        {
          "name": "account",
          "type": "address"
        }
      ],
      "name": "isPaymentGateway",
      "outputs": [
        {
          "name": "",
          "type": "bool"
        }
      ],
      "payable": false,
      "stateMutability": "view",
      "type": "function"
    },
    {
      "constant": false,
      "inputs": [
        {
          "name": "newOwner",
          "type": "address"
        }
      ],
      "name": "transferOwnership",
      "outputs": [],
      "payable": false,
      "stateMutability": "nonpayable",
      "type": "function"
    },
    {
      "constant": false,
      "inputs": [
        {
          "name": "account",
          "type": "address"
        }
      ],
      "name": "addPaymentGateway",
      "outputs": [],
      "payable": false,
      "stateMutability": "nonpayable",
      "type": "function"
    },
    {
      "inputs": [
        {
          "name": "_receipteStore",
          "type": "address"
        },
        {
          "name": "_acceptedToken",
          "type": "address"
        }
      ],
      "payable": false,
      "stateMutability": "nonpayable",
      "type": "constructor"
    },
    {
      "anonymous": false,
      "inputs": [
        {
          "indexed": false,
          "name": "",
          "type": "string"
        }
      ],
      "name": "IPFS",
      "type": "event"
    },
    {
      "anonymous": false,
      "inputs": [
        {
          "indexed": true,
          "name": "operator",
          "type": "address"
        },
        {
          "indexed": true,
          "name": "from",
          "type": "address"
        },
        {
          "indexed": false,
          "name": "value",
          "type": "uint256"
        },
        {
          "indexed": false,
          "name": "data",
          "type": "bytes"
        }
      ],
      "name": "TokensReceived",
      "type": "event"
    },
    {
      "anonymous": false,
      "inputs": [
        {
          "indexed": true,
          "name": "owner",
          "type": "address"
        },
        {
          "indexed": false,
          "name": "value",
          "type": "uint256"
        },
        {
          "indexed": false,
          "name": "data",
          "type": "bytes"
        }
      ],
      "name": "TokensApproved",
      "type": "event"
    },
    {
      "anonymous": false,
      "inputs": [
        {
          "indexed": true,
          "name": "account",
          "type": "address"
        }
      ],
      "name": "PaymentGatewayAdded",
      "type": "event"
    },
    {
      "anonymous": false,
      "inputs": [
        {
          "indexed": true,
          "name": "account",
          "type": "address"
        }
      ],
      "name": "PaymentGatewayRemoved",
      "type": "event"
    },
    {
      "anonymous": false,
      "inputs": [
        {
          "indexed": true,
          "name": "oldOwner",
          "type": "address"
        },
        {
          "indexed": true,
          "name": "newOwner",
          "type": "address"
        }
      ],
      "name": "TransferOwnership",
      "type": "event"
    },
    {
      "constant": false,
      "inputs": [],
      "name": "kill",
      "outputs": [],
      "payable": false,
      "stateMutability": "nonpayable",
      "type": "function"
    },
    {
      "constant": false,
      "inputs": [
        {
          "name": "_tokenAddress",
          "type": "address"
        },
        {
          "name": "_value",
          "type": "uint256"
        }
      ],
      "name": "transferToken",
      "outputs": [
        {
          "name": "success",
          "type": "bool"
        }
      ],
      "payable": false,
      "stateMutability": "nonpayable",
      "type": "function"
    }
  ],
  "bytecode": "0x60806040523480156200001157600080fd5b5060405160408062001d84833981018060405260408110156200003357600080fd5b81019080805190602001909291908051906020019092919050505080336000806101000a81548173ffffffffffffffffffffffffffffffffffffffff021916908373ffffffffffffffffffffffffffffffffffffffff1602179055506000809054906101000a900473ffffffffffffffffffffffffffffffffffffffff1673ffffffffffffffffffffffffffffffffffffffff16600073ffffffffffffffffffffffffffffffffffffffff167f5c486528ec3e3f0ea91181cff8116f02bfa350e03b8b6f12e00765adbb5af85c60405160405180910390a36200011c33620004ca60201b60201c565b620001346301ffc9a760e01b6200052b60201b60201c565b600073ffffffffffffffffffffffffffffffffffffffff168173ffffffffffffffffffffffffffffffffffffffff1614156200016f57600080fd5b8073ffffffffffffffffffffffffffffffffffffffff166301ffc9a7634bbee2df60e01b6040518263ffffffff1660e01b815260040180827bffffffffffffffffffffffffffffffffffffffffffffffffffffffff19167bffffffffffffffffffffffffffffffffffffffffffffffffffffffff1916815260200191505060206040518083038186803b1580156200020657600080fd5b505afa1580156200021b573d6000803e3d6000fd5b505050506040513d60208110156200023257600080fd5b810190808051906020019092919050505080156200032057508073ffffffffffffffffffffffffffffffffffffffff166301ffc9a763fb9ec8ce60e01b6040518263ffffffff1660e01b815260040180827bffffffffffffffffffffffffffffffffffffffffffffffffffffffff19167bffffffffffffffffffffffffffffffffffffffffffffffffffffffff1916815260200191505060206040518083038186803b158015620002e257600080fd5b505afa158015620002f7573d6000803e3d6000fd5b505050506040513d60208110156200030e57600080fd5b81019080805190602001909291905050505b6200032a57600080fd5b80600360006101000a81548173ffffffffffffffffffffffffffffffffffffffff021916908373ffffffffffffffffffffffffffffffffffffffff160217905550620003836388a7ca5c60e01b6200052b60201b60201c565b6200039b637b04a2d060e01b6200052b60201b60201c565b508073ffffffffffffffffffffffffffffffffffffffff16600073ffffffffffffffffffffffffffffffffffffffff16141562000440576040517f08c379a00000000000000000000000000000000000000000000000000000000081526004018080602001828103825260178152602001807f416363657074656420746f6b656e2069732077726f6e6700000000000000000081525060200191505060405180910390fd5b80600560006101000a81548173ffffffffffffffffffffffffffffffffffffffff021916908373ffffffffffffffffffffffffffffffffffffffff16021790555081600460006101000a81548173ffffffffffffffffffffffffffffffffffffffff021916908373ffffffffffffffffffffffffffffffffffffffff160217905550505062000715565b620004e5816001620005cc60201b620015871790919060201c565b8073ffffffffffffffffffffffffffffffffffffffff167f0b8ae40cf44c09a6239739a71841f906893ae431dc6b5e370d8d96413ca9fa7260405160405180910390a250565b63ffffffff60e01b817bffffffffffffffffffffffffffffffffffffffffffffffffffffffff191614156200055f57600080fd5b600160026000837bffffffffffffffffffffffffffffffffffffffffffffffffffffffff19167bffffffffffffffffffffffffffffffffffffffffffffffffffffffff1916815260200190815260200160002060006101000a81548160ff02191690831515021790555050565b600073ffffffffffffffffffffffffffffffffffffffff168173ffffffffffffffffffffffffffffffffffffffff1614156200060757600080fd5b6200061982826200068260201b60201c565b156200062457600080fd5b60018260000160008373ffffffffffffffffffffffffffffffffffffffff1673ffffffffffffffffffffffffffffffffffffffff16815260200190815260200160002060006101000a81548160ff0219169083151502179055505050565b60008073ffffffffffffffffffffffffffffffffffffffff168273ffffffffffffffffffffffffffffffffffffffff161415620006be57600080fd5b8260000160008373ffffffffffffffffffffffffffffffffffffffff1673ffffffffffffffffffffffffffffffffffffffff16815260200190815260200160002060009054906101000a900460ff16905092915050565b61165f80620007256000396000f3fe608060405234801561001057600080fd5b50600436106100cf5760003560e01c806388a7ca5c1161008c578063c07833c711610066578063c07833c7146104f7578063e3b9dd5914610501578063f2fde38b1461055d578063f38bcec0146105a1576100cf565b806388a7ca5c146103345780638da5cb5b1461048b5780638f32d59b146104d5576100cf565b806301ffc9a7146100d45780631072cbea1461013957806341c0e1b51461019f578063451c3d80146101a9578063715018a6146101f35780637b04a2d0146101fd575b600080fd5b61011f600480360360208110156100ea57600080fd5b8101908080357bffffffffffffffffffffffffffffffffffffffffffffffffffffffff191690602001909291905050506105e5565b604051808215151515815260200191505060405180910390f35b6101856004803603604081101561014f57600080fd5b81019080803573ffffffffffffffffffffffffffffffffffffffff1690602001909291908035906020019092919050505061064d565b604051808215151515815260200191505060405180910390f35b6101a761085d565b005b6101b1610885565b604051808273ffffffffffffffffffffffffffffffffffffffff1673ffffffffffffffffffffffffffffffffffffffff16815260200191505060405180910390f35b6101fb6108af565b005b6102e06004803603606081101561021357600080fd5b81019080803573ffffffffffffffffffffffffffffffffffffffff169060200190929190803590602001909291908035906020019064010000000081111561025a57600080fd5b82018360208201111561026c57600080fd5b8035906020019184600183028401116401000000008311171561028e57600080fd5b91908080601f016020809104026020016040519081016040528093929190818152602001838380828437600081840152601f19601f82011690508083019250505050505050919291929050505061097f565b60405180827bffffffffffffffffffffffffffffffffffffffffffffffffffffffff19167bffffffffffffffffffffffffffffffffffffffffffffffffffffffff1916815260200191505060405180910390f35b6104376004803603608081101561034a57600080fd5b81019080803573ffffffffffffffffffffffffffffffffffffffff169060200190929190803573ffffffffffffffffffffffffffffffffffffffff16906020019092919080359060200190929190803590602001906401000000008111156103b157600080fd5b8201836020820111156103c357600080fd5b803590602001918460018302840111640100000000831117156103e557600080fd5b91908080601f016020809104026020016040519081016040528093929190818152602001838380828437600081840152601f19601f820116905080830192505050505050509192919290505050610ab2565b60405180827bffffffffffffffffffffffffffffffffffffffffffffffffffffffff19167bffffffffffffffffffffffffffffffffffffffffffffffffffffffff1916815260200191505060405180910390f35b610493610bfe565b604051808273ffffffffffffffffffffffffffffffffffffffff1673ffffffffffffffffffffffffffffffffffffffff16815260200191505060405180910390f35b6104dd610c27565b604051808215151515815260200191505060405180910390f35b6104ff610c7e565b005b6105436004803603602081101561051757600080fd5b81019080803573ffffffffffffffffffffffffffffffffffffffff169060200190929190505050610c89565b604051808215151515815260200191505060405180910390f35b61059f6004803603602081101561057357600080fd5b81019080803573ffffffffffffffffffffffffffffffffffffffff169060200190929190505050610ca6565b005b6105e3600480360360208110156105b757600080fd5b81019080803573ffffffffffffffffffffffffffffffffffffffff169060200190929190505050610cc3565b005b600060026000837bffffffffffffffffffffffffffffffffffffffffffffffffffffffff19167bffffffffffffffffffffffffffffffffffffffffffffffffffffffff1916815260200190815260200160002060009054906101000a900460ff169050919050565b6000610657610c27565b61066057600080fd5b6000839050828173ffffffffffffffffffffffffffffffffffffffff166370a08231306040518263ffffffff1660e01b8152600401808273ffffffffffffffffffffffffffffffffffffffff1673ffffffffffffffffffffffffffffffffffffffff16815260200191505060206040518083038186803b1580156106e357600080fd5b505afa1580156106f7573d6000803e3d6000fd5b505050506040513d602081101561070d57600080fd5b81019080805190602001909291905050501015610792576040517f08c379a00000000000000000000000000000000000000000000000000000000081526004018080602001828103825260118152602001807f4e6f7420656e6f75676820746f6b656e7300000000000000000000000000000081525060200191505060405180910390fd5b8073ffffffffffffffffffffffffffffffffffffffff1663a9059cbb33856040518363ffffffff1660e01b8152600401808373ffffffffffffffffffffffffffffffffffffffff1673ffffffffffffffffffffffffffffffffffffffff16815260200182815260200192505050602060405180830381600087803b15801561081957600080fd5b505af115801561082d573d6000803e3d6000fd5b505050506040513d602081101561084357600080fd5b810190808051906020019092919050505091505092915050565b610865610c27565b15610883573373ffffffffffffffffffffffffffffffffffffffff16ff5b565b6000600360009054906101000a900473ffffffffffffffffffffffffffffffffffffffff16905090565b6108b7610c27565b6108c057600080fd5b600073ffffffffffffffffffffffffffffffffffffffff166000809054906101000a900473ffffffffffffffffffffffffffffffffffffffff1673ffffffffffffffffffffffffffffffffffffffff167f5c486528ec3e3f0ea91181cff8116f02bfa350e03b8b6f12e00765adbb5af85c60405160405180910390a360008060006101000a81548173ffffffffffffffffffffffffffffffffffffffff021916908373ffffffffffffffffffffffffffffffffffffffff160217905550565b6000600360009054906101000a900473ffffffffffffffffffffffffffffffffffffffff1673ffffffffffffffffffffffffffffffffffffffff163373ffffffffffffffffffffffffffffffffffffffff16146109db57600080fd5b8373ffffffffffffffffffffffffffffffffffffffff167ffc47604465ac19edea172256bab2469184c3a6770701541635cf84241c2f24b484846040518083815260200180602001828103825283818151815260200191508051906020019080838360005b83811015610a5b578082015181840152602081019050610a40565b50505050905090810190601f168015610a885780820380516001836020036101000a031916815260200191505b50935050505060405180910390a2610aa1848484610d4a565b637b04a2d060e01b90509392505050565b6000600360009054906101000a900473ffffffffffffffffffffffffffffffffffffffff1673ffffffffffffffffffffffffffffffffffffffff163373ffffffffffffffffffffffffffffffffffffffff1614610b0e57600080fd5b8373ffffffffffffffffffffffffffffffffffffffff168573ffffffffffffffffffffffffffffffffffffffff167f01db5e58326b109682dc160b2e51aa7bf7e8d8ccf74bc242a3c502179378905585856040518083815260200180602001828103825283818151815260200191508051906020019080838360005b83811015610ba5578082015181840152602081019050610b8a565b50505050905090810190601f168015610bd25780820380516001836020036101000a031916815260200191505b50935050505060405180910390a3610bec85858585610d4f565b6388a7ca5c60e01b9050949350505050565b60008060009054906101000a900473ffffffffffffffffffffffffffffffffffffffff16905090565b60008060009054906101000a900473ffffffffffffffffffffffffffffffffffffffff1673ffffffffffffffffffffffffffffffffffffffff163373ffffffffffffffffffffffffffffffffffffffff1614905090565b610c8733610da5565b565b6000610c9f826001610dff90919063ffffffff16565b9050919050565b610cae610c27565b610cb757600080fd5b610cc081610e91565b50565b610ccc33610c89565b610d3e576040517f08c379a000000000000000000000000000000000000000000000000000000000815260040180806020018281038252601f8152602001807f4163636f756e74206973206e6f742061205061796d656e74476174657761790081525060200191505060405180910390fd5b610d4781610f89565b50565b505050565b6000602890506000610d618284610fe3565b9050610d6d6040610ff1565b820391506000610d7d8385611220565b9050610d9c858367ffffffffffffffff16610d9787611238565b611263565b50505050505050565b610db98160016114dc90919063ffffffff16565b8073ffffffffffffffffffffffffffffffffffffffff167f4a75176bbd1382bb9f53b9677389212c98051d07dcb4ac95d733c44c74bfdfa360405160405180910390a250565b60008073ffffffffffffffffffffffffffffffffffffffff168273ffffffffffffffffffffffffffffffffffffffff161415610e3a57600080fd5b8260000160008373ffffffffffffffffffffffffffffffffffffffff1673ffffffffffffffffffffffffffffffffffffffff16815260200190815260200160002060009054906101000a900460ff16905092915050565b600073ffffffffffffffffffffffffffffffffffffffff168173ffffffffffffffffffffffffffffffffffffffff161415610ecb57600080fd5b8073ffffffffffffffffffffffffffffffffffffffff166000809054906101000a900473ffffffffffffffffffffffffffffffffffffffff1673ffffffffffffffffffffffffffffffffffffffff167f5c486528ec3e3f0ea91181cff8116f02bfa350e03b8b6f12e00765adbb5af85c60405160405180910390a3806000806101000a81548173ffffffffffffffffffffffffffffffffffffffff021916908373ffffffffffffffffffffffffffffffffffffffff16021790555050565b610f9d81600161158790919063ffffffff16565b8073ffffffffffffffffffffffffffffffffffffffff167f0b8ae40cf44c09a6239739a71841f906893ae431dc6b5e370d8d96413ca9fa7260405160405180910390a250565b600082820151905092915050565b600081600881146110fe5760108114611107576018811461111057602081146111195760288114611122576030811461112b5760388114611134576040811461113d5760488114611146576050811461114f57605881146111585760608114611161576068811461116a5760708114611173576078811461117c5760808114611185576088811461118e576090811461119757609881146111a05760a081146111a95760a881146111b25760b081146111bb5760b881146111c45760c081146111cd5760c881146111d65760d081146111df5760d881146111e85760e081146111f15760e881146111fa5760f081146112035760f8811461120c576101008114611215576020915061121a565b6001915061121a565b6002915061121a565b6003915061121a565b6004915061121a565b6005915061121a565b6006915061121a565b6007915061121a565b6008915061121a565b6009915061121a565b600a915061121a565b600b915061121a565b600c915061121a565b600d915061121a565b600e915061121a565b600f915061121a565b6010915061121a565b6011915061121a565b6012915061121a565b6013915061121a565b6014915061121a565b6015915061121a565b6016915061121a565b6017915061121a565b6018915061121a565b6019915061121a565b601a915061121a565b601b915061121a565b601c915061121a565b601d915061121a565b601e915061121a565b601f915061121a565b602091505b50919050565b60008282018152602083830101602082015292915050565b60006060829050600081511415611255576000801b91505061125e565b60208301519150505b919050565b8282620f4240600460009054906101000a900473ffffffffffffffffffffffffffffffffffffffff1673ffffffffffffffffffffffffffffffffffffffff1663164927726040518163ffffffff1660e01b8152600401602060405180830381600087803b1580156112d357600080fd5b505af11580156112e7573d6000803e3d6000fd5b505050506040513d60208110156112fd57600080fd5b810190808051906020019092919050505062ffffff1682028161131c57fe5b04612710600460009054906101000a900473ffffffffffffffffffffffffffffffffffffffff1673ffffffffffffffffffffffffffffffffffffffff16631ec7e3456040518163ffffffff1660e01b8152600401602060405180830381600087803b15801561138a57600080fd5b505af115801561139e573d6000803e3d6000fd5b505050506040513d60208110156113b457600080fd5b810190808051906020019092919050505062ffffff168402816113d357fe5b041015611448576040517f08c379a00000000000000000000000000000000000000000000000000000000081526004018080602001828103825260168152602001807f4e6f7420656e6f75676820746f6b656e20676976656e0000000000000000000081525060200191505060405180910390fd5b600460009054906101000a900473ffffffffffffffffffffffffffffffffffffffff1673ffffffffffffffffffffffffffffffffffffffff16632961dc97846040518263ffffffff1660e01b815260040180828152602001915050600060405180830381600087803b1580156114bd57600080fd5b505af11580156114d1573d6000803e3d6000fd5b505050505050505050565b600073ffffffffffffffffffffffffffffffffffffffff168173ffffffffffffffffffffffffffffffffffffffff16141561151657600080fd5b6115208282610dff565b61152957600080fd5b60008260000160008373ffffffffffffffffffffffffffffffffffffffff1673ffffffffffffffffffffffffffffffffffffffff16815260200190815260200160002060006101000a81548160ff0219169083151502179055505050565b600073ffffffffffffffffffffffffffffffffffffffff168173ffffffffffffffffffffffffffffffffffffffff1614156115c157600080fd5b6115cb8282610dff565b156115d557600080fd5b60018260000160008373ffffffffffffffffffffffffffffffffffffffff1673ffffffffffffffffffffffffffffffffffffffff16815260200190815260200160002060006101000a81548160ff021916908315150217905550505056fea165627a7a723058203eab9cf481afd755420347d1f6d9b356e2dd6b74ba972bc440c2ae2bf3afb3490029",
  "source": "pragma solidity ^0.5.8;\n\nimport \"../utils/BytesToTypes.sol\";\nimport \"../utils/SizeOf.sol\";\nimport \"../receiptaccesscontrol/PaymentGatewayRole.sol\";\nimport \"../receiptcore/Ownable.sol\";\nimport \"erc-payable-token/contracts/payment/ERC1363Payable.sol\";\nimport \"erc-payable-token/contracts/token/ERC1363/ERC1363.sol\";\ncontract ReceiptApp is Ownable, PaymentGatewayRole,  ERC1363Payable, BytesToTypes, SizeOf {\n\n  ReceiptProxy receiptStore;\n  IERC1363 private ERC1363Token;\n\n  constructor(address _receipteStore, IERC1363 _acceptedToken) ERC1363Payable(_acceptedToken) public {\n    require(address(0) != address(_acceptedToken), \"Accepted token is wrong\");\n    ERC1363Token = _acceptedToken;\n    receiptStore = ReceiptProxy(_receipteStore);\n  }\n  event IPFS(string);\n  // Define a modifier that checks if the paid amount is sufficient to cover the price\n  modifier paidEnough(uint paidTokens, uint transactionAmount) {\n    require((paidTokens * receiptStore.tokenValue() / 10000 )>= (transactionAmount * receiptStore.amountFee() / (10000 * 100)), \"Not enough token given\");\n    _;\n  }\n\n  // Define a function 'kill' if required\n  function kill() public {\n    if (isOwner()){\n      selfdestruct(msg.sender);\n    }\n  }\n/*\n  function makeReceipt(address _buyer,address _seller,uint _timestamp,uint _amount,uint8  _currency,bytes32  _reason,bytes32 _orderId) public onlyPaymentGateway // solhint-disable-line max-line-length\n  {\n    //check if buyer is already in its role\n    if (isBuyer(_buyer) == false) {\n      addBuyer(_buyer);\n    }\n\n    //check if seller is already in its role\n    if (isSeller(_seller) == false) {\n      addSeller(_seller);\n    }\n\n    // Add the new item as part of Harvest\n    ReceiptItem memory receipt;\n    receipt.buyer = _buyer;\n    receipt.seller = _seller;\n    receipt.timestamp = _timestamp;\n    receipt.amount = _amount;\n    receipt.currency = _currency;\n    receipt.reason = _reason;\n    receipt.orderId = _orderId;\n        \n    bytes32 key = keccak256(abi.encodePacked(_buyer, _seller, _timestamp));\n    receipts[key] = receipt;\n    \n    // Emit the appropriate event\n    emit NewReceipt(key);\n  }\n  // Define a function 'milkCow' that allows a farmer to mark an item 'Milked'\n  function makeShortReceipt(address _buyer,  address _seller, bytes32  ipfs, bool _trackRoles ) public \n  {\n    if (_trackRoles){\n      //check if buyer is already in its role\n      if (isBuyer(_buyer) == false) {\n        addBuyer(_buyer);\n      }\n\n      //check if seller is already in its role\n      if (isSeller(_seller) == false) {\n        addSeller(_seller);\n      }\n    }\n\n    shortReceipts[ipfs] = _buyer;\n\n    emit NewShortReceipt(ipfs);\n  }\n*/\n\n    /**\n     * @dev This method is called after `onTransferReceived`.\n     *  Note: remember that the token contract address is always the message sender.\n     * @param operator The address which called `transferAndCall` or `transferFromAndCall` function\n     * @param from Address performing the token purchase\n     * @param value The amount of tokens transferred\n     * @param data Additional data with no specified format\n     */\n  function _transferReceived(address operator, address from, uint256 value, bytes memory data) internal  {\n    // Deserializing input data (get receipt and original tx amount)\n    uint offset = 40;\n    uint64 txAmount;\n    txAmount = uint64(bytesToInt64(offset, data));\n    offset -= sizeOfInt(64);\n    bytes32 ipfsHex;\n    ipfsHex = bytesToBytes32(offset, data);\n    _addReceipt(value, txAmount, stringToBytes32(data));\n    \n  }\n\n  function _addReceipt (uint paidTokens, uint _transactionAmount,  bytes32 _transactionreference) internal paidEnough(paidTokens, _transactionAmount) {\n    receiptStore.addReceipt(_transactionreference);\n  }\n\n  function stringToBytes32(bytes memory source) private pure returns (bytes32 result) {\n    bytes memory tempEmptyStringTest = bytes(source);\n    if (tempEmptyStringTest.length == 0) {\n      return 0x0;\n    }\n\n    assembly {\n        result := mload(add(source, 32))\n    }\n  \n  }\n  function bytes32ToString(bytes32 x) private pure returns (string memory) {\n    bytes memory bytesString = new bytes(32);\n    uint charCount = 0;\n    for (uint j = 0; j < 32; j++) {\n      byte char = byte(bytes32(uint(x) * 2 ** (8 * j)));\n      if (char != 0) {\n        bytesString[charCount] = char;\n        charCount++;\n      }\n    }\n    bytes memory bytesStringTrimmed = new bytes(charCount);\n    for (uint j = 0; j < charCount; j++) {\n      bytesStringTrimmed[j] = bytesString[j];\n    }\n    return string(bytesStringTrimmed);\n  }\n\n  function transferToken(address _tokenAddress, uint _value) public onlyOwner() returns (bool success)  {\n\n    ERC1363 tokenContract = ERC1363(_tokenAddress);\n    require(tokenContract.balanceOf(address(this)) >= _value,\"Not enough tokens\");\n    return tokenContract.transfer(msg.sender, _value);\n  }\n\n}\n\n\ncontract ReceiptProxy{\n  function tokenValue() external returns (uint24);\n  function amountFee() external returns (uint24);\n  function addReceipt( bytes32  ipfs) external;\n\n}",
  "sourcePath": "/Users/lagostini/PayPlusReceipt/contracts/receiptbase/ReceiptApp.sol",
  "compiler": {
    "name": "solc",
    "version": "0.5.8+commit.23d335f2.Emscripten.clang"
  },
  "schemaVersion": "3.0.9",
  "updatedAt": "2019-05-10T17:15:52.619Z",
  "devdoc": {
    "methods": {
      "acceptedToken()": {
        "details": "The ERC1363 token accepted"
      },
      "supportsInterface(bytes4)": {
        "details": "implement supportsInterface(bytes4) using a lookup table"
      }
    }
  },
  "userdoc": {
    "methods": {
      "isOwner()": {
        "notice": "Check if the calling address is the owner of the contract"
      },
      "owner()": {
        "notice": "Look up the address of the owner"
      },
      "renounceOwnership()": {
        "notice": "Define a function to renounce ownerhip"
      },
      "transferOwnership(address)": {
        "notice": "Define a public function to transfer ownership"
      }
    }
  }
}