{
  "contractName": "ReceiptAppsRole",
  "abi": [
    {
      "inputs": [],
      "payable": false,
      "stateMutability": "nonpayable",
      "type": "constructor"
    },
    {
      "anonymous": false,
      "inputs": [
        {
          "indexed": true,
          "name": "account",
          "type": "address"
        }
      ],
      "name": "ReceiptAppAdded",
      "type": "event"
    },
    {
      "anonymous": false,
      "inputs": [
        {
          "indexed": true,
          "name": "account",
          "type": "address"
        }
      ],
      "name": "ReceiptAppRemoved",
      "type": "event"
    },
    {
      "constant": true,
      "inputs": [
        {
          "name": "account",
          "type": "address"
        }
      ],
      "name": "isReceiptApp",
      "outputs": [
        {
          "name": "",
          "type": "bool"
        }
      ],
      "payable": false,
      "stateMutability": "view",
      "type": "function"
    },
    {
      "constant": false,
      "inputs": [
        {
          "name": "account",
          "type": "address"
        }
      ],
      "name": "addReceiptApp",
      "outputs": [],
      "payable": false,
      "stateMutability": "nonpayable",
      "type": "function"
    },
    {
      "constant": false,
      "inputs": [],
      "name": "renounceReceiptApp",
      "outputs": [],
      "payable": false,
      "stateMutability": "nonpayable",
      "type": "function"
    }
  ],
  "bytecode": "0x608060405234801561001057600080fd5b506100203361002560201b60201c565b6101c7565b61003d81600061008360201b6102e51790919060201c565b8073ffffffffffffffffffffffffffffffffffffffff167fddcb1067788ca87af6324f64f4368bca922019235e74d10946f068ebac6a063360405160405180910390a250565b600073ffffffffffffffffffffffffffffffffffffffff168173ffffffffffffffffffffffffffffffffffffffff1614156100bd57600080fd5b6100cd828261013560201b60201c565b156100d757600080fd5b60018260000160008373ffffffffffffffffffffffffffffffffffffffff1673ffffffffffffffffffffffffffffffffffffffff16815260200190815260200160002060006101000a81548160ff0219169083151502179055505050565b60008073ffffffffffffffffffffffffffffffffffffffff168273ffffffffffffffffffffffffffffffffffffffff16141561017057600080fd5b8260000160008373ffffffffffffffffffffffffffffffffffffffff1673ffffffffffffffffffffffffffffffffffffffff16815260200190815260200160002060009054906101000a900460ff16905092915050565b610468806101d66000396000f3fe608060405234801561001057600080fd5b50600436106100415760003560e01c80631e14a095146100465780634d7a37961461008a5780635a68b6bb146100e6575b600080fd5b6100886004803603602081101561005c57600080fd5b81019080803573ffffffffffffffffffffffffffffffffffffffff1690602001909291905050506100f0565b005b6100cc600480360360208110156100a057600080fd5b81019080803573ffffffffffffffffffffffffffffffffffffffff169060200190929190505050610177565b604051808215151515815260200191505060405180910390f35b6100ee610194565b005b6100f933610177565b61016b576040517f08c379a000000000000000000000000000000000000000000000000000000000815260040180806020018281038252601b8152602001807f43616c6c6572206973206e6f74206120526563656970744170702e000000000081525060200191505060405180910390fd5b6101748161019f565b50565b600061018d8260006101f990919063ffffffff16565b9050919050565b61019d3361028b565b565b6101b38160006102e590919063ffffffff16565b8073ffffffffffffffffffffffffffffffffffffffff167fddcb1067788ca87af6324f64f4368bca922019235e74d10946f068ebac6a063360405160405180910390a250565b60008073ffffffffffffffffffffffffffffffffffffffff168273ffffffffffffffffffffffffffffffffffffffff16141561023457600080fd5b8260000160008373ffffffffffffffffffffffffffffffffffffffff1673ffffffffffffffffffffffffffffffffffffffff16815260200190815260200160002060009054906101000a900460ff16905092915050565b61029f81600061039190919063ffffffff16565b8073ffffffffffffffffffffffffffffffffffffffff167f7c91edb2f233227314096da4180ce26763ae2de96ecf839c3f3d01f26460009460405160405180910390a250565b600073ffffffffffffffffffffffffffffffffffffffff168173ffffffffffffffffffffffffffffffffffffffff16141561031f57600080fd5b61032982826101f9565b1561033357600080fd5b60018260000160008373ffffffffffffffffffffffffffffffffffffffff1673ffffffffffffffffffffffffffffffffffffffff16815260200190815260200160002060006101000a81548160ff0219169083151502179055505050565b600073ffffffffffffffffffffffffffffffffffffffff168173ffffffffffffffffffffffffffffffffffffffff1614156103cb57600080fd5b6103d582826101f9565b6103de57600080fd5b60008260000160008373ffffffffffffffffffffffffffffffffffffffff1673ffffffffffffffffffffffffffffffffffffffff16815260200190815260200160002060006101000a81548160ff021916908315150217905550505056fea165627a7a7230582022cbf606f89444b29d047443dc8c94ddf9d4e09a5caa8366f598704dd6e8f91f0029",
  "source": "pragma solidity ^0.5.8;\n\n// Import the library 'Roles'\nimport \"openzeppelin-solidity/contracts/access/Roles.sol\";\n\n// Define a contract 'ReceiptAppRole' to manage this role - add, remove, check\ncontract ReceiptAppsRole {\n  using Roles for Roles.Role;\n\n  // Define 2 events, one for Adding, and other for Removing\n  event ReceiptAppAdded(address indexed account);\n  event ReceiptAppRemoved(address indexed account);\n\n  // Define a struct 'ReceiptApps' by inheriting from 'Roles' library, struct Role\n  Roles.Role private _receiptApps;\n\n  // In the constructor make the address that deploys this contract the 1st ReceiptApp\n  constructor() public {\n    //be sure that contract owner \n    _addReceiptApp(msg.sender);\n  }\n\n  // Define a modifier that checks to see if msg.sender has the appropriate role\n  modifier onlyReceiptApp() {\n    require(isReceiptApp(msg.sender), \"Caller is not a ReceiptApp.\");\n    _;\n  }\n\n  // Define a function 'isReceiptApp' to check this role\n  function isReceiptApp(address account) public view returns (bool) {\n    return _receiptApps.has(account);\n  }\n\n  // Define a function 'addReceiptApp' that adds this role\n  function addReceiptApp(address account) public onlyReceiptApp {\n    _addReceiptApp(account);\n  }\n\n  // Define a function 'renounceReceiptApp' to renounce this role\n  function renounceReceiptApp() public  {\n    _removeReceiptApp(msg.sender);\n  }\n\n  // Define an internal function '_addReceiptApp' to add this role, called by 'addReceiptApp'\n  function _addReceiptApp(address account) internal {\n    _receiptApps.add(account);\n    emit ReceiptAppAdded(account);\n  }\n\n  // Define an internal function '_removeReceiptApp' to remove this role, called by 'removeReceiptApp'\n  function _removeReceiptApp(address account) internal {\n    _receiptApps.remove(account);\n    emit ReceiptAppRemoved(account);\n  }\n}",
  "sourcePath": "/Users/lagostini/PayPlusReceipt/contracts/receiptaccesscontrol/ReceiptAppsRole.sol",
  "compiler": {
    "name": "solc",
    "version": "0.5.8+commit.23d335f2.Emscripten.clang"
  },
  "schemaVersion": "3.0.9",
  "updatedAt": "2019-05-10T14:36:49.383Z",
  "devdoc": {
    "methods": {}
  },
  "userdoc": {
    "methods": {}
  }
}