{
  "contractName": "Receipt",
  "abi": [
    {
      "constant": true,
      "inputs": [
        {
          "name": "",
          "type": "bytes32"
        }
      ],
      "name": "shortReceipts",
      "outputs": [
        {
          "name": "",
          "type": "bool"
        }
      ],
      "payable": false,
      "stateMutability": "view",
      "type": "function"
    },
    {
      "constant": false,
      "inputs": [
        {
          "name": "account",
          "type": "address"
        }
      ],
      "name": "addReceiptApp",
      "outputs": [],
      "payable": false,
      "stateMutability": "nonpayable",
      "type": "function"
    },
    {
      "constant": true,
      "inputs": [
        {
          "name": "account",
          "type": "address"
        }
      ],
      "name": "isReceiptApp",
      "outputs": [
        {
          "name": "",
          "type": "bool"
        }
      ],
      "payable": false,
      "stateMutability": "view",
      "type": "function"
    },
    {
      "constant": false,
      "inputs": [],
      "name": "renounceReceiptApp",
      "outputs": [],
      "payable": false,
      "stateMutability": "nonpayable",
      "type": "function"
    },
    {
      "constant": true,
      "inputs": [],
      "name": "totReceipts",
      "outputs": [
        {
          "name": "",
          "type": "uint256"
        }
      ],
      "payable": false,
      "stateMutability": "view",
      "type": "function"
    },
    {
      "inputs": [],
      "payable": false,
      "stateMutability": "nonpayable",
      "type": "constructor"
    },
    {
      "anonymous": false,
      "inputs": [
        {
          "indexed": false,
          "name": "ticket",
          "type": "bytes32"
        }
      ],
      "name": "NewReceipt",
      "type": "event"
    },
    {
      "anonymous": false,
      "inputs": [
        {
          "indexed": true,
          "name": "account",
          "type": "address"
        }
      ],
      "name": "ReceiptAppAdded",
      "type": "event"
    },
    {
      "anonymous": false,
      "inputs": [
        {
          "indexed": true,
          "name": "account",
          "type": "address"
        }
      ],
      "name": "ReceiptAppRemoved",
      "type": "event"
    },
    {
      "constant": true,
      "inputs": [],
      "name": "amountFee",
      "outputs": [
        {
          "name": "",
          "type": "uint24"
        }
      ],
      "payable": false,
      "stateMutability": "view",
      "type": "function"
    },
    {
      "constant": true,
      "inputs": [],
      "name": "tokenValue",
      "outputs": [
        {
          "name": "",
          "type": "uint24"
        }
      ],
      "payable": false,
      "stateMutability": "view",
      "type": "function"
    },
    {
      "constant": false,
      "inputs": [
        {
          "name": "ipfs",
          "type": "bytes32"
        }
      ],
      "name": "addReceipt",
      "outputs": [],
      "payable": false,
      "stateMutability": "nonpayable",
      "type": "function"
    },
    {
      "constant": false,
      "inputs": [
        {
          "name": "_tokenValue",
          "type": "uint24"
        },
        {
          "name": "_amountFee",
          "type": "uint24"
        }
      ],
      "name": "setReceiptPrice",
      "outputs": [],
      "payable": false,
      "stateMutability": "nonpayable",
      "type": "function"
    },
    {
      "constant": true,
      "inputs": [
        {
          "name": "_ipfs",
          "type": "bytes32"
        }
      ],
      "name": "getReceipt",
      "outputs": [
        {
          "name": "",
          "type": "bool"
        }
      ],
      "payable": false,
      "stateMutability": "view",
      "type": "function"
    }
  ],
  "bytecode": "0x608060405234801561001057600080fd5b50610020336100f560201b60201c565b33600460006101000a81548173ffffffffffffffffffffffffffffffffffffffff021916908373ffffffffffffffffffffffffffffffffffffffff160217905550610069610297565b6000816000019062ffffff16908162ffffff16815250506001816020019062ffffff16908162ffffff168152505080600360008201518160000160006101000a81548162ffffff021916908362ffffff16021790555060208201518160000160036101000a81548162ffffff021916908362ffffff1602179055509050506000600281905550506102bb565b61010d81600061015360201b61072a1790919060201c565b8073ffffffffffffffffffffffffffffffffffffffff167fddcb1067788ca87af6324f64f4368bca922019235e74d10946f068ebac6a063360405160405180910390a250565b600073ffffffffffffffffffffffffffffffffffffffff168173ffffffffffffffffffffffffffffffffffffffff16141561018d57600080fd5b61019d828261020560201b60201c565b156101a757600080fd5b60018260000160008373ffffffffffffffffffffffffffffffffffffffff1673ffffffffffffffffffffffffffffffffffffffff16815260200190815260200160002060006101000a81548160ff0219169083151502179055505050565b60008073ffffffffffffffffffffffffffffffffffffffff168273ffffffffffffffffffffffffffffffffffffffff16141561024057600080fd5b8260000160008373ffffffffffffffffffffffffffffffffffffffff1673ffffffffffffffffffffffffffffffffffffffff16815260200190815260200160002060009054906101000a900460ff16905092915050565b6040518060400160405280600062ffffff168152602001600062ffffff1681525090565b6108ad806102ca6000396000f3fe608060405234801561001057600080fd5b506004361061009d5760003560e01c80634d7a3796116100665780634d7a3796146101aa5780635a68b6bb146102065780636d83dd9214610210578063e970ece914610252578063fcecbb61146102705761009d565b806278606c146100a257806316492772146100e85780631e14a095146101105780631ec7e345146101545780632961dc971461017c575b600080fd5b6100ce600480360360208110156100b857600080fd5b81019080803590602001909291905050506102b6565b604051808215151515815260200191505060405180910390f35b6100f06102d6565b604051808262ffffff1662ffffff16815260200191505060405180910390f35b6101526004803603602081101561012657600080fd5b81019080803573ffffffffffffffffffffffffffffffffffffffff1690602001909291905050506102f2565b005b61015c610379565b604051808262ffffff1662ffffff16815260200191505060405180910390f35b6101a86004803603602081101561019257600080fd5b8101908080359060200190929190505050610395565b005b6101ec600480360360208110156101c057600080fd5b81019080803573ffffffffffffffffffffffffffffffffffffffff169060200190929190505050610481565b604051808215151515815260200191505060405180910390f35b61020e61049e565b005b6102506004803603604081101561022657600080fd5b81019080803562ffffff169060200190929190803562ffffff1690602001909291905050506104a9565b005b61025a6105b4565b6040518082815260200191505060405180910390f35b61029c6004803603602081101561028657600080fd5b81019080803590602001909291905050506105ba565b604051808215151515815260200191505060405180910390f35b60016020528060005260406000206000915054906101000a900460ff1681565b6000600360000160009054906101000a900462ffffff16905090565b6102fb33610481565b61036d576040517f08c379a000000000000000000000000000000000000000000000000000000000815260040180806020018281038252601b8152602001807f43616c6c6572206973206e6f74206120526563656970744170702e000000000081525060200191505060405180910390fd5b610376816105e4565b50565b6000600360000160039054906101000a900462ffffff16905090565b61039e33610481565b610410576040517f08c379a000000000000000000000000000000000000000000000000000000000815260040180806020018281038252601b8152602001807f43616c6c6572206973206e6f74206120526563656970744170702e000000000081525060200191505060405180910390fd5b600180600083815260200190815260200160002060006101000a81548160ff0219169083151502179055506001600254016002819055507ffac719c1496c84e6db068fe9fe07710ecf1d5cb000f2a6c1c7dfd65462394cdb816040518082815260200191505060405180910390a150565b600061049782600061063e90919063ffffffff16565b9050919050565b6104a7336106d0565b565b600460009054906101000a900473ffffffffffffffffffffffffffffffffffffffff1673ffffffffffffffffffffffffffffffffffffffff163373ffffffffffffffffffffffffffffffffffffffff161461056c576040517f08c379a000000000000000000000000000000000000000000000000000000000815260040180806020018281038252601c8152602001807f43616c6c6572206973206e6f7420636f6e7472616374206f776e65720000000081525060200191505060405180910390fd5b80600360000160006101000a81548162ffffff021916908362ffffff16021790555081600360000160036101000a81548162ffffff021916908362ffffff1602179055505050565b60025481565b60006001600083815260200190815260200160002060009054906101000a900460ff169050919050565b6105f881600061072a90919063ffffffff16565b8073ffffffffffffffffffffffffffffffffffffffff167fddcb1067788ca87af6324f64f4368bca922019235e74d10946f068ebac6a063360405160405180910390a250565b60008073ffffffffffffffffffffffffffffffffffffffff168273ffffffffffffffffffffffffffffffffffffffff16141561067957600080fd5b8260000160008373ffffffffffffffffffffffffffffffffffffffff1673ffffffffffffffffffffffffffffffffffffffff16815260200190815260200160002060009054906101000a900460ff16905092915050565b6106e48160006107d690919063ffffffff16565b8073ffffffffffffffffffffffffffffffffffffffff167f7c91edb2f233227314096da4180ce26763ae2de96ecf839c3f3d01f26460009460405160405180910390a250565b600073ffffffffffffffffffffffffffffffffffffffff168173ffffffffffffffffffffffffffffffffffffffff16141561076457600080fd5b61076e828261063e565b1561077857600080fd5b60018260000160008373ffffffffffffffffffffffffffffffffffffffff1673ffffffffffffffffffffffffffffffffffffffff16815260200190815260200160002060006101000a81548160ff0219169083151502179055505050565b600073ffffffffffffffffffffffffffffffffffffffff168173ffffffffffffffffffffffffffffffffffffffff16141561081057600080fd5b61081a828261063e565b61082357600080fd5b60008260000160008373ffffffffffffffffffffffffffffffffffffffff1673ffffffffffffffffffffffffffffffffffffffff16815260200190815260200160002060006101000a81548160ff021916908315150217905550505056fea165627a7a72305820f5cd0c3406090a0d579a06a56444e094826ca27560d4f8ef4fcd346e70edbe020029",
  "source": "pragma solidity ^0.5.8;\n\nimport \"../receiptaccesscontrol/ReceiptAppsRole.sol\";\n\ncontract Receipt is ReceiptAppsRole {\n  mapping (bytes32 => bool) public shortReceipts;\n  uint256 public totReceipts;\n  //mapping (uint256 => bytes32) public receipts;\n  ReceiptPrice  _receiptPrice;\n  address private contractOwner;              // Account used to deploy contract\n  struct ReceiptPrice{\n    uint24 amountFee;   //smart contract fee in % of CC transaction. Resolution is 4 decimals\n    uint24 tokenValue;  //smart token value in EUR. Resolution is 4 decimals\n  }\n\n  event NewReceipt(bytes32 ticket);\n\n  constructor() public  {\n    contractOwner = msg.sender;\n    ReceiptPrice memory price;\n    price.amountFee = 0;\n    price.tokenValue = 1;\n    _receiptPrice = price;\n    totReceipts = 0;\n  }\n\n  /********************************************************************************************/\n  /*                                       FUNCTION MODIFIERS                                 */\n  /********************************************************************************************/\n\n  /**\n  * @dev Modifier that requires the \"ContractOwner\" account to be the function caller\n  */\n  modifier requireContractOwner()\n  {\n    require(msg.sender == contractOwner, \"Caller is not contract owner\");\n    _;\n  }\n\n  /********************************************************************************************/\n  /*                                       SMART CONTRACT FUNCTIONS                           */\n  /********************************************************************************************/\n  /**\n  * @return the name of the token.\n  */\n  function amountFee() public view returns (uint24) {\n    return _receiptPrice.amountFee;\n  }\n    /**\n  * @return the name of the token.\n  */\n  function tokenValue() public view returns (uint24) {\n    return _receiptPrice.tokenValue;\n  }\n\n\n  function addReceipt(bytes32  ipfs) public onlyReceiptApp {\n    shortReceipts[ipfs] = true;\n    totReceipts = totReceipts + 1;\n    emit NewReceipt(ipfs);\n  }\n\n  function setReceiptPrice(uint24 _tokenValue, uint24 _amountFee) public requireContractOwner{\n    _receiptPrice.amountFee = _amountFee;\n    _receiptPrice.tokenValue = _tokenValue;\n  }\n\n  function getReceipt(bytes32 _ipfs ) public view returns(bool){\n    //require(shortReceipts[_ipfs], \"Receipt not found\");\n    return shortReceipts[_ipfs];\n\n  }\n}",
  "sourcePath": "/Users/lagostini/PayPlusReceipt/contracts/receiptbase/ReceiptData.sol",
  "compiler": {
    "name": "solc",
    "version": "0.5.8+commit.23d335f2.Emscripten.clang"
  },
  "schemaVersion": "3.0.9",
  "updatedAt": "2019-05-10T17:15:52.602Z",
  "devdoc": {
    "methods": {
      "amountFee()": {
        "return": "the name of the token."
      },
      "tokenValue()": {
        "return": "the name of the token."
      }
    }
  },
  "userdoc": {
    "methods": {}
  }
}